:020000040000FA
:04000000FEEFFFF020
:020000040001F9
:10FF060012001200120001EE01F1110EEE6AE8066F
:10FF1600FDE10001AEEFFFF0000E0401086F300EA8
:10FF2600C76E000ECF6E000EC66E000E006F800EFE
:10FF3600BE6E1200000E0D6E000E0E6E000E0F6EDF
:10FF4600000E106E000E096E000E0A6E000E0B6E8D
:10FF5600000E0C6E1200088E83ECFFF09DECFFF095
:10FF66008FECFFF085ECFFF0BFECFFF084ECFFF0C8
:10FF7600B7EFFFF0FEEFFFF0CF50300B300AD8A4FA
:10FF8600C7EFFFF0C9EFFFF0F2EFFFF0C00EBE6063
:10FF9600CFEFFFF0D1EFFFF0F2EFFFF0010E0126F9
:10FFA600000E022203220422C00E126E270E136ECA
:10FFB600090E146E000E156E1206000E135A145A10
:10FFC600155A1250131014101510D8A4EDEFFFF0A7
:10FFD600EFEFFFF0DFEFFFF0BE2AFDEFFFF0C00E00
:10FFE600BE18D8A4F9EFFFF0FBEFFFF0FDEFFFF02E
:0AFFF600800EBE6E120086EFFFF0D1
:020000040020DA
:10000000FF0FFF0FFF0FFF0FFF0FFF0FFF0FFF0F80
:10001000FF0FFF0FFF0FFF0FFF0FFF0FFF0FFF0F70
:020000040030CA
:0A0000008CFEFFFC9FFFFFFFFFFFD7
:00000001FF
