:020000040000FA
:04000000FEEFFFF020
:020000040001F9
:10FF4A00120012001200000EC66E800EBE6E120063
:10FF5A0001EE01F10D0EEE6AE806FDE10001C7EFC0
:10FF6A00FFF0000E096E000E0A6E000E0B6E000EF8
:10FF7A000C6E000E056E000E066E000E076E000E69
:10FF8A00086E1200048EA5ECFFF0B6ECFFF0A8ECA8
:10FF9A00FFF0A7ECFFF0D8ECFFF0A6ECFFF0D0EFF3
:10FFAA00FFF0FEEFFFF0F3EFFFF0800E0E6E1A0E79
:10FFBA000F6E060E106E000E116E0E06000E0F5A10
:10FFCA00105A115A0E500F1010101110D8A4F0EF39
:10FFDA00FFF0F2EFFFF0E2EFFFF0BE2ABF0EBE64C1
:10FFEA00F9EFFFF0FBEFFFF0DAEFFFF0800EBE6EE5
:06FFFA001200ADEFFFF064
:020000040020DA
:10000000FF0FFF0FFF0FFF0FFF0FFF0FFF0FFF0F80
:10001000FF0FFF0FFF0FFF0FFF0FFF0FFF0FFF0F70
:020000040030CA
:0A0000008CFEFFFC9FFFFFFFFFFFD7
:00000001FF
